{
  "contractName": "CDRTToken",
  "abi": [
    {
      "constant": false,
      "inputs": [
        {
          "name": "_qty",
          "type": "uint256"
        }
      ],
      "name": "buyBack",
      "outputs": [],
      "payable": false,
      "stateMutability": "nonpayable",
      "type": "function"
    },
    {
      "constant": true,
      "inputs": [],
      "name": "name",
      "outputs": [
        {
          "name": "",
          "type": "string"
        }
      ],
      "payable": false,
      "stateMutability": "view",
      "type": "function"
    },
    {
      "constant": false,
      "inputs": [
        {
          "name": "_spender",
          "type": "address"
        },
        {
          "name": "_value",
          "type": "uint256"
        }
      ],
      "name": "approve",
      "outputs": [
        {
          "name": "success",
          "type": "bool"
        }
      ],
      "payable": false,
      "stateMutability": "nonpayable",
      "type": "function"
    },
    {
      "constant": true,
      "inputs": [],
      "name": "totalSupply",
      "outputs": [
        {
          "name": "supply",
          "type": "uint256"
        }
      ],
      "payable": false,
      "stateMutability": "view",
      "type": "function"
    },
    {
      "constant": true,
      "inputs": [],
      "name": "nextPE",
      "outputs": [
        {
          "name": "",
          "type": "uint256"
        }
      ],
      "payable": false,
      "stateMutability": "view",
      "type": "function"
    },
    {
      "constant": false,
      "inputs": [
        {
          "name": "_from",
          "type": "address"
        },
        {
          "name": "_to",
          "type": "address"
        },
        {
          "name": "_value",
          "type": "uint256"
        }
      ],
      "name": "transferFrom",
      "outputs": [
        {
          "name": "success",
          "type": "bool"
        }
      ],
      "payable": false,
      "stateMutability": "nonpayable",
      "type": "function"
    },
    {
      "constant": true,
      "inputs": [],
      "name": "peBalance",
      "outputs": [
        {
          "name": "",
          "type": "uint256"
        }
      ],
      "payable": false,
      "stateMutability": "view",
      "type": "function"
    },
    {
      "constant": true,
      "inputs": [],
      "name": "decimals",
      "outputs": [
        {
          "name": "",
          "type": "uint8"
        }
      ],
      "payable": false,
      "stateMutability": "view",
      "type": "function"
    },
    {
      "constant": false,
      "inputs": [
        {
          "name": "_value",
          "type": "uint256"
        }
      ],
      "name": "burn",
      "outputs": [
        {
          "name": "success",
          "type": "bool"
        }
      ],
      "payable": false,
      "stateMutability": "nonpayable",
      "type": "function"
    },
    {
      "constant": true,
      "inputs": [
        {
          "name": "",
          "type": "address"
        }
      ],
      "name": "balanceOf",
      "outputs": [
        {
          "name": "",
          "type": "uint256"
        }
      ],
      "payable": false,
      "stateMutability": "view",
      "type": "function"
    },
    {
      "constant": false,
      "inputs": [],
      "name": "claimProfitEquivalent",
      "outputs": [],
      "payable": false,
      "stateMutability": "nonpayable",
      "type": "function"
    },
    {
      "constant": false,
      "inputs": [
        {
          "name": "_from",
          "type": "address"
        },
        {
          "name": "_value",
          "type": "uint256"
        }
      ],
      "name": "burnFrom",
      "outputs": [
        {
          "name": "success",
          "type": "bool"
        }
      ],
      "payable": false,
      "stateMutability": "nonpayable",
      "type": "function"
    },
    {
      "constant": false,
      "inputs": [
        {
          "name": "_value",
          "type": "uint256"
        }
      ],
      "name": "setNextPE",
      "outputs": [],
      "payable": false,
      "stateMutability": "nonpayable",
      "type": "function"
    },
    {
      "constant": true,
      "inputs": [],
      "name": "owner",
      "outputs": [
        {
          "name": "",
          "type": "address"
        }
      ],
      "payable": false,
      "stateMutability": "view",
      "type": "function"
    },
    {
      "constant": false,
      "inputs": [
        {
          "name": "_newPrice",
          "type": "uint256"
        }
      ],
      "name": "setPrice",
      "outputs": [],
      "payable": false,
      "stateMutability": "nonpayable",
      "type": "function"
    },
    {
      "constant": true,
      "inputs": [],
      "name": "symbol",
      "outputs": [
        {
          "name": "",
          "type": "string"
        }
      ],
      "payable": false,
      "stateMutability": "view",
      "type": "function"
    },
    {
      "constant": false,
      "inputs": [
        {
          "name": "_to",
          "type": "address"
        },
        {
          "name": "_value",
          "type": "uint256"
        }
      ],
      "name": "transfer",
      "outputs": [],
      "payable": false,
      "stateMutability": "nonpayable",
      "type": "function"
    },
    {
      "constant": true,
      "inputs": [
        {
          "name": "",
          "type": "address"
        }
      ],
      "name": "frozenAccount",
      "outputs": [
        {
          "name": "",
          "type": "uint256"
        }
      ],
      "payable": false,
      "stateMutability": "view",
      "type": "function"
    },
    {
      "constant": false,
      "inputs": [
        {
          "name": "_spender",
          "type": "address"
        },
        {
          "name": "_value",
          "type": "uint256"
        },
        {
          "name": "_extraData",
          "type": "bytes"
        }
      ],
      "name": "approveAndCall",
      "outputs": [
        {
          "name": "success",
          "type": "bool"
        }
      ],
      "payable": false,
      "stateMutability": "nonpayable",
      "type": "function"
    },
    {
      "constant": false,
      "inputs": [
        {
          "name": "_year",
          "type": "uint256"
        }
      ],
      "name": "takeSnapshot",
      "outputs": [],
      "payable": false,
      "stateMutability": "nonpayable",
      "type": "function"
    },
    {
      "constant": true,
      "inputs": [
        {
          "name": "",
          "type": "address"
        },
        {
          "name": "",
          "type": "address"
        }
      ],
      "name": "allowance",
      "outputs": [
        {
          "name": "",
          "type": "uint256"
        }
      ],
      "payable": false,
      "stateMutability": "view",
      "type": "function"
    },
    {
      "constant": true,
      "inputs": [],
      "name": "buyBackPrice",
      "outputs": [
        {
          "name": "",
          "type": "uint256"
        }
      ],
      "payable": false,
      "stateMutability": "view",
      "type": "function"
    },
    {
      "constant": true,
      "inputs": [],
      "name": "bbBalance",
      "outputs": [
        {
          "name": "",
          "type": "uint256"
        }
      ],
      "payable": false,
      "stateMutability": "view",
      "type": "function"
    },
    {
      "constant": false,
      "inputs": [
        {
          "name": "_from",
          "type": "address"
        }
      ],
      "name": "freezeAccount",
      "outputs": [],
      "payable": false,
      "stateMutability": "nonpayable",
      "type": "function"
    },
    {
      "constant": false,
      "inputs": [
        {
          "name": "newOwner",
          "type": "address"
        }
      ],
      "name": "transferOwnership",
      "outputs": [],
      "payable": false,
      "stateMutability": "nonpayable",
      "type": "function"
    },
    {
      "constant": true,
      "inputs": [
        {
          "name": "",
          "type": "uint256"
        },
        {
          "name": "",
          "type": "address"
        }
      ],
      "name": "snapShot",
      "outputs": [
        {
          "name": "",
          "type": "uint256"
        }
      ],
      "payable": false,
      "stateMutability": "view",
      "type": "function"
    },
    {
      "inputs": [
        {
          "name": "initialSupply",
          "type": "uint256"
        },
        {
          "name": "tokenName",
          "type": "string"
        },
        {
          "name": "tokenSymbol",
          "type": "string"
        }
      ],
      "payable": false,
      "stateMutability": "nonpayable",
      "type": "constructor"
    },
    {
      "payable": true,
      "stateMutability": "payable",
      "type": "fallback"
    },
    {
      "anonymous": false,
      "inputs": [
        {
          "indexed": false,
          "name": "target",
          "type": "address"
        },
        {
          "indexed": false,
          "name": "frozen",
          "type": "uint256"
        }
      ],
      "name": "FrozenFunds",
      "type": "event"
    },
    {
      "anonymous": false,
      "inputs": [
        {
          "indexed": true,
          "name": "from",
          "type": "address"
        },
        {
          "indexed": true,
          "name": "to",
          "type": "address"
        },
        {
          "indexed": false,
          "name": "value",
          "type": "uint256"
        }
      ],
      "name": "Transfer",
      "type": "event"
    },
    {
      "anonymous": false,
      "inputs": [
        {
          "indexed": true,
          "name": "from",
          "type": "address"
        },
        {
          "indexed": false,
          "name": "value",
          "type": "uint256"
        }
      ],
      "name": "Burn",
      "type": "event"
    }
  ],
  "bytecode": "0x60606040526008600360006101000a81548160ff021916908360ff160217905550635bbe684f6009556020604051908101604052806107e161ffff16815250600b906001620000509291906200021a565b5060408051908101604052807317d5b9419deb289041b34fa879d99381474e8ebc73ffffffffffffffffffffffffffffffffffffffff1673ffffffffffffffffffffffffffffffffffffffff168152602001731de196d0d351b245a996f5751b545fa0dc2a55d673ffffffffffffffffffffffffffffffffffffffff1673ffffffffffffffffffffffffffffffffffffffff168152506012906002620000f892919062000272565b5034156200010557600080fd5b6040516200243a3803806200243a83398101604052808051906020019091908051820191906020018051820191905050828282336000806101000a81548173ffffffffffffffffffffffffffffffffffffffff021916908373ffffffffffffffffffffffffffffffffffffffff160217905550600360009054906101000a900460ff1660ff16600a0a8302600481905550600454600560003373ffffffffffffffffffffffffffffffffffffffff1673ffffffffffffffffffffffffffffffffffffffff168152602001908152602001600020819055508160019080519060200190620001f492919062000301565b5080600290805190602001906200020d92919062000301565b50505050505050620003f6565b8280548282559060005260206000209081019282156200025f579160200282015b828111156200025e578251829061ffff169055916020019190600101906200023b565b5b5090506200026e919062000388565b5090565b828054828255906000526020600020908101928215620002ee579160200282015b82811115620002ed5782518260006101000a81548173ffffffffffffffffffffffffffffffffffffffff021916908373ffffffffffffffffffffffffffffffffffffffff1602179055509160200191906001019062000293565b5b509050620002fd9190620003b0565b5090565b828054600181600116156101000203166002900490600052602060002090601f016020900481019282601f106200034457805160ff191683800117855562000375565b8280016001018555821562000375579182015b828111156200037457825182559160200191906001019062000357565b5b50905062000384919062000388565b5090565b620003ad91905b80821115620003a95760008160009055506001016200038f565b5090565b90565b620003f391905b80821115620003ef57600081816101000a81549073ffffffffffffffffffffffffffffffffffffffff021916905550600101620003b7565b5090565b90565b61203480620004066000396000f300606060405260043610610154576000357c0100000000000000000000000000000000000000000000000000000000900463ffffffff168063053f90401461036a57806306fdde031461038d578063095ea7b31461041b57806318160ddd14610475578063224a6ac31461049e57806323b872dd146104c757806325575a0414610540578063313ce5671461056957806342966c681461059857806370a08231146105d357806377bf96d41461062057806379cc67901461063557806388b9c3d71461068f5780638da5cb5b146106b257806391b7f5ed1461070757806395d89b411461072a578063a9059cbb146107b8578063b414d4b6146107fa578063cae9ca5114610847578063d0beb73a146108e4578063dd62ed3e14610907578063e23000a014610973578063ec5dfb841461099c578063f26c159f146109c5578063f2fde38b146109fe578063f739a50114610a37575b6012600181548110151561016457fe5b906000526020600020900160009054906101000a900473ffffffffffffffffffffffffffffffffffffffff1673ffffffffffffffffffffffffffffffffffffffff163373ffffffffffffffffffffffffffffffffffffffff16141580156102325750601260028154811015156101d657fe5b906000526020600020900160009054906101000a900473ffffffffffffffffffffffffffffffffffffffff1673ffffffffffffffffffffffffffffffffffffffff163373ffffffffffffffffffffffffffffffffffffffff1614155b1561027757600260033481151561024557fe5b0402600c6000828254019250508190555060033481151561026257fe5b04600d60008282540192505081905550610368565b6012600181548110151561028757fe5b906000526020600020900160009054906101000a900473ffffffffffffffffffffffffffffffffffffffff1673ffffffffffffffffffffffffffffffffffffffff163373ffffffffffffffffffffffffffffffffffffffff161415156102ef5734600c819055505b601260028154811015156102ff57fe5b906000526020600020900160009054906101000a900473ffffffffffffffffffffffffffffffffffffffff1673ffffffffffffffffffffffffffffffffffffffff163373ffffffffffffffffffffffffffffffffffffffff161415156103675734600d819055505b5b005b341561037557600080fd5b61038b6004808035906020019091905050610a8d565b005b341561039857600080fd5b6103a0610bcc565b6040518080602001828103825283818151815260200191508051906020019080838360005b838110156103e05780820151818401526020810190506103c5565b50505050905090810190601f16801561040d5780820380516001836020036101000a031916815260200191505b509250505060405180910390f35b341561042657600080fd5b61045b600480803573ffffffffffffffffffffffffffffffffffffffff16906020019091908035906020019091905050610c6a565b604051808215151515815260200191505060405180910390f35b341561048057600080fd5b610488610cf7565b6040518082815260200191505060405180910390f35b34156104a957600080fd5b6104b1610d01565b6040518082815260200191505060405180910390f35b34156104d257600080fd5b610526600480803573ffffffffffffffffffffffffffffffffffffffff1690602001909190803573ffffffffffffffffffffffffffffffffffffffff16906020019091908035906020019091905050610d07565b604051808215151515815260200191505060405180910390f35b341561054b57600080fd5b610553610e34565b6040518082815260200191505060405180910390f35b341561057457600080fd5b61057c610e3a565b604051808260ff1660ff16815260200191505060405180910390f35b34156105a357600080fd5b6105b96004808035906020019091905050610e4d565b604051808215151515815260200191505060405180910390f35b34156105de57600080fd5b61060a600480803573ffffffffffffffffffffffffffffffffffffffff16906020019091905050610f51565b6040518082815260200191505060405180910390f35b341561062b57600080fd5b610633610f69565b005b341561064057600080fd5b610675600480803573ffffffffffffffffffffffffffffffffffffffff169060200190919080359060200190919050506110c2565b604051808215151515815260200191505060405180910390f35b341561069a57600080fd5b6106b060048080359060200190919050506112dc565b005b34156106bd57600080fd5b6106c5611351565b604051808273ffffffffffffffffffffffffffffffffffffffff1673ffffffffffffffffffffffffffffffffffffffff16815260200191505060405180910390f35b341561071257600080fd5b6107286004808035906020019091905050611376565b005b341561073557600080fd5b61073d6113ed565b6040518080602001828103825283818151815260200191508051906020019080838360005b8381101561077d578082015181840152602081019050610762565b50505050905090810190601f1680156107aa5780820380516001836020036101000a031916815260200191505b509250505060405180910390f35b34156107c357600080fd5b6107f8600480803573ffffffffffffffffffffffffffffffffffffffff1690602001909190803590602001909190505061148b565b005b341561080557600080fd5b610831600480803573ffffffffffffffffffffffffffffffffffffffff16906020019091905050611503565b6040518082815260200191505060405180910390f35b341561085257600080fd5b6108ca600480803573ffffffffffffffffffffffffffffffffffffffff1690602001909190803590602001909190803590602001908201803590602001908080601f0160208091040260200160405190810160405280939291908181526020018383808284378201915050505050509190505061151b565b604051808215151515815260200191505060405180910390f35b34156108ef57600080fd5b6109056004808035906020019091905050611699565b005b341561091257600080fd5b61095d600480803573ffffffffffffffffffffffffffffffffffffffff1690602001909190803573ffffffffffffffffffffffffffffffffffffffff1690602001909190505061189a565b6040518082815260200191505060405180910390f35b341561097e57600080fd5b6109866118bf565b6040518082815260200191505060405180910390f35b34156109a757600080fd5b6109af6118c5565b6040518082815260200191505060405180910390f35b34156109d057600080fd5b6109fc600480803573ffffffffffffffffffffffffffffffffffffffff169060200190919050506118cb565b005b3415610a0957600080fd5b610a35600480803573ffffffffffffffffffffffffffffffffffffffff16906020019091905050611a40565b005b3415610a4257600080fd5b610a77600480803590602001909190803573ffffffffffffffffffffffffffffffffffffffff16906020019091905050611ade565b6040518082815260200191505060405180910390f35b6000635bc3d88042111515610aa157600080fd5b610aaa33611b03565b6007548202905081600560003373ffffffffffffffffffffffffffffffffffffffff1673ffffffffffffffffffffffffffffffffffffffff1681526020019081526020016000205410151515610aff57600080fd5b6000600754111515610b1057600080fd5b80600d5410151515610b2157600080fd5b42600a60003373ffffffffffffffffffffffffffffffffffffffff1673ffffffffffffffffffffffffffffffffffffffff16815260200190815260200160002054101515610b6e57600080fd5b3373ffffffffffffffffffffffffffffffffffffffff166108fc829081150290604051600060405180830381858888f193505050501515610bae57600080fd5b80600d60008282540392505081905550610bc782610e4d565b505050565b60018054600181600116156101000203166002900480601f016020809104026020016040519081016040528092919081815260200182805460018160011615610100020316600290048015610c625780601f10610c3757610100808354040283529160200191610c62565b820191906000526020600020905b815481529060010190602001808311610c4557829003601f168201915b505050505081565b600081600660003373ffffffffffffffffffffffffffffffffffffffff1673ffffffffffffffffffffffffffffffffffffffff16815260200190815260200160002060008573ffffffffffffffffffffffffffffffffffffffff1673ffffffffffffffffffffffffffffffffffffffff168152602001908152602001600020819055506001905092915050565b6000600454905090565b60095481565b6000600660008573ffffffffffffffffffffffffffffffffffffffff1673ffffffffffffffffffffffffffffffffffffffff16815260200190815260200160002060003373ffffffffffffffffffffffffffffffffffffffff1673ffffffffffffffffffffffffffffffffffffffff168152602001908152602001600020548211151515610d9457600080fd5b81600660008673ffffffffffffffffffffffffffffffffffffffff1673ffffffffffffffffffffffffffffffffffffffff16815260200190815260200160002060003373ffffffffffffffffffffffffffffffffffffffff1673ffffffffffffffffffffffffffffffffffffffff16815260200190815260200160002060008282540392505081905550610e29848484611c04565b600190509392505050565b600c5481565b600360009054906101000a900460ff1681565b600081600560003373ffffffffffffffffffffffffffffffffffffffff1673ffffffffffffffffffffffffffffffffffffffff1681526020019081526020016000205410151515610e9d57600080fd5b81600560003373ffffffffffffffffffffffffffffffffffffffff1673ffffffffffffffffffffffffffffffffffffffff16815260200190815260200160002060008282540392505081905550816004600082825403925050819055503373ffffffffffffffffffffffffffffffffffffffff167fcc16f5dbb4873280815c1ee09dbd06736cffcc184412cf7a71a0fdb75d397ca5836040518082815260200191505060405180910390a260019050919050565b60056020528060005260406000206000915090505481565b600080600090505b6001600b80549050038111151561106e5760086000600b83815481101515610f9557fe5b906000526020600020900154815260200190815260200160002060003373ffffffffffffffffffffffffffffffffffffffff1673ffffffffffffffffffffffffffffffffffffffff1681526020019081526020016000205482019150600060086000600b8481548110151561100657fe5b906000526020600020900154815260200190815260200160002060003373ffffffffffffffffffffffffffffffffffffffff1673ffffffffffffffffffffffffffffffffffffffff168152602001908152602001600020819055508080600101915050610f71565b81600e600082825403925050819055503373ffffffffffffffffffffffffffffffffffffffff166108fc839081150290604051600060405180830381858888f1935050505015156110be57600080fd5b5050565b600081600560008573ffffffffffffffffffffffffffffffffffffffff1673ffffffffffffffffffffffffffffffffffffffff168152602001908152602001600020541015151561111257600080fd5b600660008473ffffffffffffffffffffffffffffffffffffffff1673ffffffffffffffffffffffffffffffffffffffff16815260200190815260200160002060003373ffffffffffffffffffffffffffffffffffffffff1673ffffffffffffffffffffffffffffffffffffffff16815260200190815260200160002054821115151561119d57600080fd5b81600560008573ffffffffffffffffffffffffffffffffffffffff1673ffffffffffffffffffffffffffffffffffffffff1681526020019081526020016000206000828254039250508190555081600660008573ffffffffffffffffffffffffffffffffffffffff1673ffffffffffffffffffffffffffffffffffffffff16815260200190815260200160002060003373ffffffffffffffffffffffffffffffffffffffff1673ffffffffffffffffffffffffffffffffffffffff16815260200190815260200160002060008282540392505081905550816004600082825403925050819055508273ffffffffffffffffffffffffffffffffffffffff167fcc16f5dbb4873280815c1ee09dbd06736cffcc184412cf7a71a0fdb75d397ca5836040518082815260200191505060405180910390a26001905092915050565b6000809054906101000a900473ffffffffffffffffffffffffffffffffffffffff1673ffffffffffffffffffffffffffffffffffffffff163373ffffffffffffffffffffffffffffffffffffffff1614151561133757600080fd5b6009548111151561134757600080fd5b8060098190555050565b6000809054906101000a900473ffffffffffffffffffffffffffffffffffffffff1681565b6000809054906101000a900473ffffffffffffffffffffffffffffffffffffffff1673ffffffffffffffffffffffffffffffffffffffff163373ffffffffffffffffffffffffffffffffffffffff161415156113d157600080fd5b635bc3d880421115156113e357600080fd5b8060078190555050565b60028054600181600116156101000203166002900480601f0160208091040260200160405190810160405280929190818152602001828054600181600116156101000203166002900480156114835780601f1061145857610100808354040283529160200191611483565b820191906000526020600020905b81548152906001019060200180831161146657829003601f168201915b505050505081565b6000809054906101000a900473ffffffffffffffffffffffffffffffffffffffff1673ffffffffffffffffffffffffffffffffffffffff163373ffffffffffffffffffffffffffffffffffffffff161415156114f457635a14bdff421115156114f357600080fd5b5b6114ff338383611c04565b5050565b600a6020528060005260406000206000915090505481565b60008084905061152b8585610c6a565b15611690578073ffffffffffffffffffffffffffffffffffffffff16638f4ffcb1338630876040518563ffffffff167c0100000000000000000000000000000000000000000000000000000000028152600401808573ffffffffffffffffffffffffffffffffffffffff1673ffffffffffffffffffffffffffffffffffffffff1681526020018481526020018373ffffffffffffffffffffffffffffffffffffffff1673ffffffffffffffffffffffffffffffffffffffff16815260200180602001828103825283818151815260200191508051906020019080838360005b8381101561162557808201518184015260208101905061160a565b50505050905090810190601f1680156116525780820380516001836020036101000a031916815260200191505b5095505050505050600060405180830381600087803b151561167357600080fd5b6102c65a03f1151561168457600080fd5b50505060019150611691565b5b509392505050565b6000806000809054906101000a900473ffffffffffffffffffffffffffffffffffffffff1673ffffffffffffffffffffffffffffffffffffffff163373ffffffffffffffffffffffffffffffffffffffff161415156116f757600080fd5b600b6001600b805490500381548110151561170e57fe5b9060005260206000209001548311151561172757600080fd5b600454600c5481151561173657fe5b049150600190505b601054811115156118525781600560006011600085815260200190815260200160002060009054906101000a900473ffffffffffffffffffffffffffffffffffffffff1673ffffffffffffffffffffffffffffffffffffffff1673ffffffffffffffffffffffffffffffffffffffff16815260200190815260200160002054026008600085815260200190815260200160002060006011600085815260200190815260200160002060009054906101000a900473ffffffffffffffffffffffffffffffffffffffff1673ffffffffffffffffffffffffffffffffffffffff1673ffffffffffffffffffffffffffffffffffffffff16815260200190815260200160002081905550808060010191505061173e565b600b80548060010182816118669190611fb7565b916000526020600020900160008590919091505550600c54600e600082825401925050819055506000600c81905550505050565b6006602052816000526040600020602052806000526040600020600091509150505481565b60075481565b600d5481565b6000809054906101000a900473ffffffffffffffffffffffffffffffffffffffff1673ffffffffffffffffffffffffffffffffffffffff163373ffffffffffffffffffffffffffffffffffffffff1614151561192657600080fd5b635bee08804210151561193857600080fd5b6000600a60008373ffffffffffffffffffffffffffffffffffffffff1673ffffffffffffffffffffffffffffffffffffffff1681526020019081526020016000205414151561198657600080fd5b635bee087f600a60008373ffffffffffffffffffffffffffffffffffffffff1673ffffffffffffffffffffffffffffffffffffffff168152602001908152602001600020819055507fb4d1971fab77c7179a15c1d5959be5ccdf22f58dc394dfab76d4f27098d981df81635bee087f604051808373ffffffffffffffffffffffffffffffffffffffff1673ffffffffffffffffffffffffffffffffffffffff1681526020018281526020019250505060405180910390a150565b6000809054906101000a900473ffffffffffffffffffffffffffffffffffffffff1673ffffffffffffffffffffffffffffffffffffffff163373ffffffffffffffffffffffffffffffffffffffff16141515611a9b57600080fd5b806000806101000a81548173ffffffffffffffffffffffffffffffffffffffff021916908373ffffffffffffffffffffffffffffffffffffffff16021790555050565b6008602052816000526040600020602052806000526040600020600091509150505481565b600a60008273ffffffffffffffffffffffffffffffffffffffff1673ffffffffffffffffffffffffffffffffffffffff1681526020019081526020016000205442111515611b5057600080fd5b6000600a60008373ffffffffffffffffffffffffffffffffffffffff1673ffffffffffffffffffffffffffffffffffffffff168152602001908152602001600020819055507fb4d1971fab77c7179a15c1d5959be5ccdf22f58dc394dfab76d4f27098d981df816000604051808373ffffffffffffffffffffffffffffffffffffffff1673ffffffffffffffffffffffffffffffffffffffff1681526020018281526020019250505060405180910390a150565b611c0d83611b03565b611c1682611b03565b60008273ffffffffffffffffffffffffffffffffffffffff1614151515611c3c57600080fd5b80600560008573ffffffffffffffffffffffffffffffffffffffff1673ffffffffffffffffffffffffffffffffffffffff1681526020019081526020016000205410151515611c8a57600080fd5b600560008373ffffffffffffffffffffffffffffffffffffffff1673ffffffffffffffffffffffffffffffffffffffff1681526020019081526020016000205481600560008573ffffffffffffffffffffffffffffffffffffffff1673ffffffffffffffffffffffffffffffffffffffff1681526020019081526020016000205401111515611d1857600080fd5b42600a60008573ffffffffffffffffffffffffffffffffffffffff1673ffffffffffffffffffffffffffffffffffffffff16815260200190815260200160002054101515611d6557600080fd5b42600a60008473ffffffffffffffffffffffffffffffffffffffff1673ffffffffffffffffffffffffffffffffffffffff16815260200190815260200160002054101515611db257600080fd5b611dbb82611ebf565b80600560008573ffffffffffffffffffffffffffffffffffffffff1673ffffffffffffffffffffffffffffffffffffffff1681526020019081526020016000206000828254039250508190555080600560008473ffffffffffffffffffffffffffffffffffffffff1673ffffffffffffffffffffffffffffffffffffffff168152602001908152602001600020600082825401925050819055508173ffffffffffffffffffffffffffffffffffffffff168373ffffffffffffffffffffffffffffffffffffffff167fddf252ad1be2c89b69c2b068fc378daa952ba7f163c4a11628f55a4df523b3ef836040518082815260200191505060405180910390a3505050565b6000600f60008373ffffffffffffffffffffffffffffffffffffffff1673ffffffffffffffffffffffffffffffffffffffff168152602001908152602001600020541415611fb4576010600081548092919060010191905055508060116000601054815260200190815260200160002060006101000a81548173ffffffffffffffffffffffffffffffffffffffff021916908373ffffffffffffffffffffffffffffffffffffffff160217905550601054600f60008373ffffffffffffffffffffffffffffffffffffffff1673ffffffffffffffffffffffffffffffffffffffff168152602001908152602001600020819055505b50565b815481835581811511611fde57818360005260206000209182019101611fdd9190611fe3565b5b505050565b61200591905b80821115612001576000816000905550600101611fe9565b5090565b905600a165627a7a7230582023e958e0c6910b0932e0e64c206360b8288fc807775f5928916a5f1560ddc1b70029",
  "source": "pragma solidity ^0.4.18;\n\nimport \"erc20.sol\";\n\ncontract CDRTToken is TokenERC20 {\n\n    uint256 public buyBackPrice;\n    // Snapshot of PE balances by Ethereum Address and by year\n    mapping (uint256 => mapping (address => uint256)) public snapShot;\n    // This is time for next Profit Equivalent\n    uint256 public nextPE = 1539205199;\n    // List of Team and Founders account's frozen till 15 November 2018\n    mapping (address => uint256) public frozenAccount;\n\n    // List of all years when snapshots were made\n    uint256[] internal yearsPast = [2017];  \n    // Holds current year PE balance\n    uint256 public peBalance;       \n    // Holds full Buy Back balance\n    uint256 public bbBalance;       \n    // Holds unclaimed PE balance from last periods\n    uint256 internal peLastPeriod;       \n    // All ever used in transactions Ethereum Addresses' positions in list\n    mapping (address => uint256) internal ownerPos;              \n    // Total number of Ethereum Addresses used in transactions \n    uint256 internal pos;                                      \n    // All ever used in transactions Ethereum Addresses list\n    mapping (uint256 => address) internal addressList;   \n    \n    address[] internal payers = [0x17D5B9419dEB289041b34fA879d99381474e8EBC,     // pe Account\n                                 0x1De196D0D351B245a996f5751B545FA0Dc2a55d6];    // buyBack Account\n\n    /* This generates a public event on the blockchain that will notify clients */\n    event FrozenFunds(address target, uint256 frozen);\n\n    /* Handles incoming payments to contract's address */\n    function() payable public {\n        // Anything send not by owner will be divided between Campaigns \n        if (msg.sender != payers[1] && msg.sender != payers[2]){\n          peBalance += msg.value/3*2;     // Profit Equivalent\n          bbBalance += msg.value/3;       // Buy-Back\n        } else {\n            if (msg.sender != payers[1]) peBalance = msg.value;       \n            if (msg.sender != payers[2]) bbBalance = msg.value;      \n        }\n    }\n    /* Initializes contract with initial supply tokens to the creator of the contract */\n    function CDRTToken(\n        uint256 initialSupply,\n        string tokenName,\n        string tokenSymbol\n    ) TokenERC20(initialSupply, tokenName, tokenSymbol) public {}\n\n    /* Internal insertion in list of all Ethereum Addresses used in transactions, called by contract */\n    function _insert(address _to) internal {\n            if (ownerPos[_to] == 0) {\n                pos++;\n                addressList[pos] = _to;\n                ownerPos[_to] = pos;\n            }\n    }\n\n    /* Internal transfer, only can be called by this contract */\n    function _transfer(address _from, address _to, uint _value) internal {\n        _unFreezeAccount(_from);\n        _unFreezeAccount(_to);\n        require (_to != 0x0);                               // Prevent transfer to 0x0 address. Use burn() instead\n        require (balanceOf[_from] >= _value);                // Check if the sender has enough\n        require (balanceOf[_to] + _value > balanceOf[_to]); // Check for overflows\n        require(frozenAccount[_from] < now);                // Check if sender is frozen\n        require(frozenAccount[_to] < now);                  // Check if recipient is frozen\n         _insert(_to);\n        balanceOf[_from] -= _value;                         // Subtract from the sender\n        balanceOf[_to] += _value;                           // Add the same to the recipient\n        Transfer(_from, _to, _value);\n    }\n\n    /**\n      * @notice Freezes from sending & receiving tokens. For users protection can't be used after 1542326399\n      * and will not allow corrections.\n      *\n      * We can't check when balance of current account was received, \n      * so we don't allow to receive either. \n      *\n      * If member of Team with frozen account would like to buy more CDRT tokens\n      * separate address should be used before account will be unfreezed\n      *\n      * Will set freeze to 1542326399, that is 15.11.2018 23:59\n      *\n      * @param _from  Founders and Team account we are freezing from sending\n      *\n      */\n   function freezeAccount(address _from) onlyOwner public {\n        require(now < 1542326400);\n        require(frozenAccount[_from] == 0);\n        frozenAccount[_from] = 1542326399;                  \n        FrozenFunds(_from, 1542326399);\n    }\n\n    /**\n      * @notice unfreeze Team account if time has come. No need to call directly as it checks when try to transfer tokens\n      *\n      * @param _from Address to unfreeze\n      */\n    function _unFreezeAccount(address _from) internal {\n        // Check if sender can be unfreezed\n        require(now > frozenAccount[_from]);                                                \n        frozenAccount[_from] = 0;              \n        FrozenFunds(_from, 0);\n    } \n    /**\n      * @notice Allow owner to set tokens price for Buy-Back Campaign. Can not be executed until 1539561600\n      *\n      * @param _newPrice market value of 1 CDRT Token\n      *\n      */\n    function setPrice(uint256 _newPrice) onlyOwner public {\n        require(now > 1539561600);                          \n        buyBackPrice = _newPrice;\n    }\n\n    /**\n      * @notice Set next date to claim Profit Equivalent. Should be called by contract owner only after 15 october\n      *\n      * @param _value unix timestamp of next 10 October\n      */\n    function setNextPE(uint256 _value) onlyOwner public {\n        require (_value > nextPE);\n        nextPE = _value;    \n    }\n\n    /**\n      * @notice Contract owner can take snapshot of current balances and issue PE to each balance\n      *\n      * @param _year year of the snapshot to take, must be greater than existing value\n      *\n      */\n   function takeSnapshot(uint256 _year) onlyOwner public {\n        require(_year > yearsPast[yearsPast.length-1]);                             \n        uint256 reward = peBalance / totalSupply;\n        for (uint256 k=1; k <= pos; k++){\n            snapShot[_year][addressList[k]] = balanceOf[addressList[k]] * reward;\n        }\n        yearsPast.push(_year);\n        peLastPeriod += peBalance;     // Transfer new balance to unclaimed\n        peBalance = 0;                 // Zero current balance;\n    }\n\n    /**\n      *  @notice Allow user to claim his PE on his Ethereum Address. Should be called manualy by user\n      *\n      */\n    function claimProfitEquivalent() public {\n        uint256 toPay;\n        for (uint256 k=0; k <= yearsPast.length-1; k++){\n            toPay += snapShot[yearsPast[k]][msg.sender];\n            snapShot[yearsPast[k]][msg.sender] = 0;\n        }\n        peLastPeriod -= toPay;\n        msg.sender.transfer(toPay);\n    }\n    /**\n      * @notice Allow user to sell CDRT tokens and destroy them. Can not be executed until 1539561600\n      *\n      * @param _qty amount to sell and destroy\n      */\n    function buyBack(uint256 _qty) public\n    {\n        require(now > 1539561600);                          \n        _unFreezeAccount(msg.sender);\n        uint256 toPay = _qty*buyBackPrice;                                        \n        require(balanceOf[msg.sender] >= _qty);                     // check if user has enough CDRT Tokens \n        require(buyBackPrice > 0);                                       // check if sale price set\n        require(bbBalance >= toPay);                        \n        require(frozenAccount[msg.sender] < now);                   // Check if sender is frozen\n        msg.sender.transfer(toPay);\n        bbBalance -= toPay;\n        burn(_qty);\n    }\n    \n}\n",
  "sourcePath": "/Users/0p/Documents/dev/cdrt/contracts/cdrt.sol",
  "compiler": {
    "name": "solc",
    "version": "0.4.18+commit.9cf6e910.Emscripten.clang"
  },
  "schemaVersion": "1.0.1",
  "updatedAt": "2017-11-08T09:55:05.711Z"
}